{
  "transactions": [
    {
      "hash": "0x163ee5c3584bedb772c4cfe21d48facde9f08e89501b5369134b94304976489a",
      "transactionType": "CALL",
      "contractName": null,
      "contractAddress": "0x6782ac490615f63baaced668a5fa4f4d3e250d6a",
      "function": "registerAgent(address)",
      "arguments": [
        "0x03746707814360933738eC292A22B661b60B7F87"
      ],
      "transaction": {
        "from": "0x03746707814360933738ec292a22b661b60b7f87",
        "to": "0x6782ac490615f63baaced668a5fa4f4d3e250d6a",
        "gas": "0x1c1f6",
        "value": "0x0",
        "input": "0x306b9bb900000000000000000000000003746707814360933738ec292a22b661b60b7f87",
        "nonce": "0xaf",
        "chainId": "0x279f"
      },
      "additionalContracts": [],
      "isFixedGasLimit": false
    },
    {
      "hash": "0x5b59e46832c03f323e16f89e99cfe96aa4f2a9f62eaca671fac2a5e27015699c",
      "transactionType": "CALL",
      "contractName": null,
      "contractAddress": "0x0b8fe534ab0f6bf6a09e92bb1f260cadd7587777",
      "function": "approve(address,uint256)",
      "arguments": [
        "0xb3EDdc787f22E188d3E30319df62cCb6f1bF4693",
        "115792089237316195423570985008687907853269984665640564039457584007913129639935"
      ],
      "transaction": {
        "from": "0x03746707814360933738ec292a22b661b60b7f87",
        "to": "0x0b8fe534ab0f6bf6a09e92bb1f260cadd7587777",
        "gas": "0x142df",
        "value": "0x0",
        "input": "0x095ea7b3000000000000000000000000b3eddc787f22e188d3e30319df62ccb6f1bf4693ffffffffffffffffffffffffffffffffffffffffffffffffffffffffffffffff",
        "nonce": "0xb0",
        "chainId": "0x279f"
      },
      "additionalContracts": [],
      "isFixedGasLimit": false
    },
    {
      "hash": "0x2a746de254866fefd96f429dee86ca31feda8d8a6e179fada082557270d99687",
      "transactionType": "CALL",
      "contractName": null,
      "contractAddress": "0x0b8fe534ab0f6bf6a09e92bb1f260cadd7587777",
      "function": "approve(address,uint256)",
      "arguments": [
        "0x8357034bF4A5B477709d90f3409C511F8Aa5Ec8C",
        "115792089237316195423570985008687907853269984665640564039457584007913129639935"
      ],
      "transaction": {
        "from": "0x03746707814360933738ec292a22b661b60b7f87",
        "to": "0x0b8fe534ab0f6bf6a09e92bb1f260cadd7587777",
        "gas": "0x142df",
        "value": "0x0",
        "input": "0x095ea7b30000000000000000000000008357034bf4a5b477709d90f3409c511f8aa5ec8cffffffffffffffffffffffffffffffffffffffffffffffffffffffffffffffff",
        "nonce": "0xb1",
        "chainId": "0x279f"
      },
      "additionalContracts": [],
      "isFixedGasLimit": false
    },
    {
      "hash": "0x24434dd8f63ca5420f7eab3309c73bc4d21e64e07370f52c6a0acdb98ef3b96f",
      "transactionType": "CALL",
      "contractName": null,
      "contractAddress": "0xb3eddc787f22e188d3e30319df62ccb6f1bf4693",
      "function": "proposeWithCategory(address[],uint256[],bytes[],string,uint256)",
      "arguments": [
        "[0xb3EDdc787f22E188d3E30319df62cCb6f1bF4693]",
        "[0]",
        "[0x2e0dcbf7000000000000000000000000000000000000000000000000000000000000002000000000000000000000000000000000000000000000000000000000000000044465466900000000000000000000000000000000000000000000000000000000]",
        "Add DeFi category",
        "0"
      ],
      "transaction": {
        "from": "0x03746707814360933738ec292a22b661b60b7f87",
        "to": "0xb3eddc787f22e188d3e30319df62ccb6f1bf4693",
        "gas": "0x42bfc",
        "value": "0x0",
        "input": "0xf9b6b20200000000000000000000000000000000000000000000000000000000000000a000000000000000000000000000000000000000000000000000000000000000e00000000000000000000000000000000000000000000000000000000000000120000000000000000000000000000000000000000000000000000000000000020000000000000000000000000000000000000000000000000000000000000000000000000000000000000000000000000000000000000000000000000000000001000000000000000000000000b3eddc787f22e188d3e30319df62ccb6f1bf4693000000000000000000000000000000000000000000000000000000000000000100000000000000000000000000000000000000000000000000000000000000000000000000000000000000000000000000000000000000000000000000000001000000000000000000000000000000000000000000000000000000000000002000000000000000000000000000000000000000000000000000000000000000642e0dcbf700000000000000000000000000000000000000000000000000000000000000200000000000000000000000000000000000000000000000000000000000000004446546690000000000000000000000000000000000000000000000000000000000000000000000000000000000000000000000000000000000000000000000000000000000000000000000000000000000000000000000000000001141646420446546692063617465676f7279000000000000000000000000000000",
        "nonce": "0xb2",
        "chainId": "0x279f"
      },
      "additionalContracts": [],
      "isFixedGasLimit": false
    },
    {
      "hash": "0xde83e55d8a1cb8c526331cff7110c0ff547f71308567eff0106a49f71c466bde",
      "transactionType": "CALL",
      "contractName": null,
      "contractAddress": "0x8357034bf4a5b477709d90f3409c511f8aa5ec8c",
      "function": "bet(uint256,bool,uint256)",
      "arguments": [
        "114976885668975094205784666733933063791857962762300878560823555620316704498175",
        "true",
        "5000000000000000000"
      ],
      "transaction": {
        "from": "0x03746707814360933738ec292a22b661b60b7f87",
        "to": "0x8357034bf4a5b477709d90f3409c511f8aa5ec8c",
        "gas": "0x2baf2",
        "value": "0x0",
        "input": "0x8decaec0fe329c731a3b60c7396f2163c87e3ebb5420bc9d4c7ea8c0b74dd566a5a561ff00000000000000000000000000000000000000000000000000000000000000010000000000000000000000000000000000000000000000004563918244f40000",
        "nonce": "0xb3",
        "chainId": "0x279f"
      },
      "additionalContracts": [],
      "isFixedGasLimit": false
    }
  ],
  "receipts": [
    {
      "status": "0x1",
      "cumulativeGasUsed": "0x83e96",
      "logs": [
        {
          "address": "0x6782ac490615f63baaced668a5fa4f4d3e250d6a",
          "topics": [
            "0x82d0829d9d481e4cb9913897f9b9c903271c4db68c7b3324071d2a7e3b2c5ff0",
            "0x00000000000000000000000003746707814360933738ec292a22b661b60b7f87"
          ],
          "data": "0x",
          "blockHash": "0x90dc19e86ba52510df8eb7a26dc7781a528c2ef9444378bd809f3ed7e689e420",
          "blockNumber": "0xbc1706",
          "blockTimestamp": "0x698dccd9",
          "transactionHash": "0x163ee5c3584bedb772c4cfe21d48facde9f08e89501b5369134b94304976489a",
          "transactionIndex": "0x4",
          "logIndex": "0x7",
          "removed": false
        }
      ],
      "logsBloom": "0x00000000000000000000000000000000400000000010000000000000000000000000200000000000000000000000000000000000000000000000000000000000000000000000000000000000000000000000000000000000000000000000000000000000000000000000000000000000000000000000000000000000000000000000000000000000000000000000000000000000000000000000000000000100000000000000000000000000000000000000000000000100000000000000000010000000000008000000000000000000000000000000200000000000000000000000000000400000000000000000000000000000000000000000000000000000",
      "type": "0x2",
      "transactionHash": "0x163ee5c3584bedb772c4cfe21d48facde9f08e89501b5369134b94304976489a",
      "transactionIndex": "0x4",
      "blockHash": "0x90dc19e86ba52510df8eb7a26dc7781a528c2ef9444378bd809f3ed7e689e420",
      "blockNumber": "0xbc1706",
      "gasUsed": "0x1c1f6",
      "effectiveGasPrice": "0x17fb474600",
      "from": "0x03746707814360933738ec292a22b661b60b7f87",
      "to": "0x6782ac490615f63baaced668a5fa4f4d3e250d6a",
      "contractAddress": null
    },
    {
      "status": "0x1",
      "cumulativeGasUsed": "0xa9a3f",
      "logs": [
        {
          "address": "0x0b8fe534ab0f6bf6a09e92bb1f260cadd7587777",
          "topics": [
            "0x8c5be1e5ebec7d5bd14f71427d1e84f3dd0314c0f7b2291e5b200ac8c7c3b925",
            "0x00000000000000000000000003746707814360933738ec292a22b661b60b7f87",
            "0x000000000000000000000000b3eddc787f22e188d3e30319df62ccb6f1bf4693"
          ],
          "data": "0xffffffffffffffffffffffffffffffffffffffffffffffffffffffffffffffff",
          "blockHash": "0xe4a5dc333c68e88372a4938f55f413cfb823761823ddd14a162157fae48b6132",
          "blockNumber": "0xbc170c",
          "blockTimestamp": "0x698dccdc",
          "transactionHash": "0x5b59e46832c03f323e16f89e99cfe96aa4f2a9f62eaca671fac2a5e27015699c",
          "transactionIndex": "0x3",
          "logIndex": "0xd",
          "removed": false
        }
      ],
      "logsBloom": "0x00000000000000000000000000000000000000000000000000000000000000000000200000000000000100000000000000000000000000000000000000200000000000000000000000000000000000000000000000008000000000000000000000000000000000000000000000000000000000000200000000000000000000000000000000000000000000000000000000020000000000000000000000000000020000000000000000000000000000000000000000000140000000000000000000000000000008000000000000000000000000000000000000000000000000000010000000000000000000000000000000000000000000000000000000001000",
      "type": "0x2",
      "transactionHash": "0x5b59e46832c03f323e16f89e99cfe96aa4f2a9f62eaca671fac2a5e27015699c",
      "transactionIndex": "0x3",
      "blockHash": "0xe4a5dc333c68e88372a4938f55f413cfb823761823ddd14a162157fae48b6132",
      "blockNumber": "0xbc170c",
      "gasUsed": "0x142df",
      "effectiveGasPrice": "0x17fb474600",
      "from": "0x03746707814360933738ec292a22b661b60b7f87",
      "to": "0x0b8fe534ab0f6bf6a09e92bb1f260cadd7587777",
      "contractAddress": null
    },
    {
      "status": "0x1",
      "cumulativeGasUsed": "0x88f94",
      "logs": [
        {
          "address": "0x0b8fe534ab0f6bf6a09e92bb1f260cadd7587777",
          "topics": [
            "0x8c5be1e5ebec7d5bd14f71427d1e84f3dd0314c0f7b2291e5b200ac8c7c3b925",
            "0x00000000000000000000000003746707814360933738ec292a22b661b60b7f87",
            "0x0000000000000000000000008357034bf4a5b477709d90f3409c511f8aa5ec8c"
          ],
          "data": "0xffffffffffffffffffffffffffffffffffffffffffffffffffffffffffffffff",
          "blockHash": "0x6c8ffc872f60df91d8cba25ba6621618fcc2901bf5b30ba994cdccd29fdd79f8",
          "blockNumber": "0xbc1711",
          "blockTimestamp": "0x698dccde",
          "transactionHash": "0x2a746de254866fefd96f429dee86ca31feda8d8a6e179fada082557270d99687",
          "transactionIndex": "0x4",
          "logIndex": "0xb",
          "removed": false
        }
      ],
      "logsBloom": "0x00000000000000000000000000000000002000000000000000000000000000000000200000000000000000000000000000000000000000000000000000200000000000000000000000000000000000000000000000008000000000000000000000000000000000000000000000000000000000000000000000000000000000000000000000000000000000000000000000000000000000000000000000000000020000000000000000000000000000000000000000000140000000000000000000000000000008000000000000000000000000000000000000000000000000000010000000000000000000000000000000000008000000000000000000011000",
      "type": "0x2",
      "transactionHash": "0x2a746de254866fefd96f429dee86ca31feda8d8a6e179fada082557270d99687",
      "transactionIndex": "0x4",
      "blockHash": "0x6c8ffc872f60df91d8cba25ba6621618fcc2901bf5b30ba994cdccd29fdd79f8",
      "blockNumber": "0xbc1711",
      "gasUsed": "0x142df",
      "effectiveGasPrice": "0x17fb474600",
      "from": "0x03746707814360933738ec292a22b661b60b7f87",
      "to": "0x0b8fe534ab0f6bf6a09e92bb1f260cadd7587777",
      "contractAddress": null
    },
    {
      "status": "0x1",
      "cumulativeGasUsed": "0xa372d",
      "logs": [
        {
          "address": "0x0b8fe534ab0f6bf6a09e92bb1f260cadd7587777",
          "topics": [
            "0xddf252ad1be2c89b69c2b068fc378daa952ba7f163c4a11628f55a4df523b3ef",
            "0x00000000000000000000000003746707814360933738ec292a22b661b60b7f87",
            "0x000000000000000000000000b3eddc787f22e188d3e30319df62ccb6f1bf4693"
          ],
          "data": "0x00000000000000000000000000000000000000000000000542253a126ce40000",
          "blockHash": "0x16f7830cbc951baff234cf0091c7d84bed910216aa58ed1a70f2488b8e28d025",
          "blockNumber": "0xbc1716",
          "blockTimestamp": "0x698dcce0",
          "transactionHash": "0x24434dd8f63ca5420f7eab3309c73bc4d21e64e07370f52c6a0acdb98ef3b96f",
          "transactionIndex": "0x2",
          "logIndex": "0x5",
          "removed": false
        },
        {
          "address": "0xb3eddc787f22e188d3e30319df62ccb6f1bf4693",
          "topics": [
            "0x7d84a6263ae0d98d3329bd7b46bb4e8d6f98cd35a7adb45c274c8b7fd5ebd5e0"
          ],
          "data": "0xfe329c731a3b60c7396f2163c87e3ebb5420bc9d4c7ea8c0b74dd566a5a561ff00000000000000000000000003746707814360933738ec292a22b661b60b7f870000000000000000000000000000000000000000000000000000000000000120000000000000000000000000000000000000000000000000000000000000016000000000000000000000000000000000000000000000000000000000000001a000000000000000000000000000000000000000000000000000000000000002000000000000000000000000000000000000000000000000000000000000bc17170000000000000000000000000000000000000000000000000000000000bc1e1f00000000000000000000000000000000000000000000000000000000000002e00000000000000000000000000000000000000000000000000000000000000001000000000000000000000000b3eddc787f22e188d3e30319df62ccb6f1bf4693000000000000000000000000000000000000000000000000000000000000000100000000000000000000000000000000000000000000000000000000000000000000000000000000000000000000000000000000000000000000000000000001000000000000000000000000000000000000000000000000000000000000002000000000000000000000000000000000000000000000000000000000000000000000000000000000000000000000000000000000000000000000000000000001000000000000000000000000000000000000000000000000000000000000002000000000000000000000000000000000000000000000000000000000000000642e0dcbf700000000000000000000000000000000000000000000000000000000000000200000000000000000000000000000000000000000000000000000000000000004446546690000000000000000000000000000000000000000000000000000000000000000000000000000000000000000000000000000000000000000000000000000000000000000000000000000000000000000000000000000001141646420446546692063617465676f7279000000000000000000000000000000",
          "blockHash": "0x16f7830cbc951baff234cf0091c7d84bed910216aa58ed1a70f2488b8e28d025",
          "blockNumber": "0xbc1716",
          "blockTimestamp": "0x698dcce0",
          "transactionHash": "0x24434dd8f63ca5420f7eab3309c73bc4d21e64e07370f52c6a0acdb98ef3b96f",
          "transactionIndex": "0x2",
          "logIndex": "0x6",
          "removed": false
        },
        {
          "address": "0x8357034bf4a5b477709d90f3409c511f8aa5ec8c",
          "topics": [
            "0x25b2eff8f9cbb97c6c73adf7d94f4f8956260becc65ab075709db7561914a2b1",
            "0xfe329c731a3b60c7396f2163c87e3ebb5420bc9d4c7ea8c0b74dd566a5a561ff"
          ],
          "data": "0x",
          "blockHash": "0x16f7830cbc951baff234cf0091c7d84bed910216aa58ed1a70f2488b8e28d025",
          "blockNumber": "0xbc1716",
          "blockTimestamp": "0x698dcce0",
          "transactionHash": "0x24434dd8f63ca5420f7eab3309c73bc4d21e64e07370f52c6a0acdb98ef3b96f",
          "transactionIndex": "0x2",
          "logIndex": "0x7",
          "removed": false
        },
        {
          "address": "0xb3eddc787f22e188d3e30319df62ccb6f1bf4693",
          "topics": [
            "0xbb755a650b07b369fc6149a8c367703ccbcf4d8f8e4fa7e9341dccf5dc9fd3d4",
            "0xfe329c731a3b60c7396f2163c87e3ebb5420bc9d4c7ea8c0b74dd566a5a561ff",
            "0x00000000000000000000000003746707814360933738ec292a22b661b60b7f87"
          ],
          "data": "0x00000000000000000000000000000000000000000000000542253a126ce400000000000000000000000000000000000000000000000000000000000000000000",
          "blockHash": "0x16f7830cbc951baff234cf0091c7d84bed910216aa58ed1a70f2488b8e28d025",
          "blockNumber": "0xbc1716",
          "blockTimestamp": "0x698dcce0",
          "transactionHash": "0x24434dd8f63ca5420f7eab3309c73bc4d21e64e07370f52c6a0acdb98ef3b96f",
          "transactionIndex": "0x2",
          "logIndex": "0x8",
          "removed": false
        }
      ],
      "logsBloom": "0x040000000000000000000000000000000000000000000000000000000000000000002004000000000001000000010000000000000000000000000000000000000000000000020000000000080000000000000000000080000000000000001000000000000000000000000010000000000000400002000000000000100000000000001000000000000000000000000000000a0000000800000004000000000000080000000000000000000000000000000000000000002140000000000000000300000002000008001000000000000000000000000000000000000000000008000000000000004000000000000000000000000000000000000000000000001000",
      "type": "0x2",
      "transactionHash": "0x24434dd8f63ca5420f7eab3309c73bc4d21e64e07370f52c6a0acdb98ef3b96f",
      "transactionIndex": "0x2",
      "blockHash": "0x16f7830cbc951baff234cf0091c7d84bed910216aa58ed1a70f2488b8e28d025",
      "blockNumber": "0xbc1716",
      "gasUsed": "0x6c723",
      "effectiveGasPrice": "0x17fb474600",
      "from": "0x03746707814360933738ec292a22b661b60b7f87",
      "to": "0xb3eddc787f22e188d3e30319df62ccb6f1bf4693",
      "contractAddress": null
    },
    {
      "status": "0x1",
      "cumulativeGasUsed": "0x79eec",
      "logs": [
        {
          "address": "0x0b8fe534ab0f6bf6a09e92bb1f260cadd7587777",
          "topics": [
            "0xddf252ad1be2c89b69c2b068fc378daa952ba7f163c4a11628f55a4df523b3ef",
            "0x00000000000000000000000003746707814360933738ec292a22b661b60b7f87",
            "0x0000000000000000000000008357034bf4a5b477709d90f3409c511f8aa5ec8c"
          ],
          "data": "0x0000000000000000000000000000000000000000000000004563918244f40000",
          "blockHash": "0x31bf17617660dc061c13890565f30db0cb8a054ae3a7fca9f22b63437ac70e41",
          "blockNumber": "0xbc171a",
          "blockTimestamp": "0x698dcce1",
          "transactionHash": "0xde83e55d8a1cb8c526331cff7110c0ff547f71308567eff0106a49f71c466bde",
          "transactionIndex": "0x2",
          "logIndex": "0x5",
          "removed": false
        },
        {
          "address": "0x8357034bf4a5b477709d90f3409c511f8aa5ec8c",
          "topics": [
            "0x4af71b021e799c62c158bd54636ca8da2fa26115a21a2dc6efe486ec104fd15f",
            "0xfe329c731a3b60c7396f2163c87e3ebb5420bc9d4c7ea8c0b74dd566a5a561ff",
            "0x00000000000000000000000003746707814360933738ec292a22b661b60b7f87"
          ],
          "data": "0x00000000000000000000000000000000000000000000000000000000000000010000000000000000000000000000000000000000000000004563918244f40000",
          "blockHash": "0x31bf17617660dc061c13890565f30db0cb8a054ae3a7fca9f22b63437ac70e41",
          "blockNumber": "0xbc171a",
          "blockTimestamp": "0x698dcce1",
          "transactionHash": "0xde83e55d8a1cb8c526331cff7110c0ff547f71308567eff0106a49f71c466bde",
          "transactionIndex": "0x2",
          "logIndex": "0x6",
          "removed": false
        }
      ],
      "logsBloom": "0x00000000000000000000000000000000002000000000000000000000000000000000200000000000000000000001000000000008000000000000000000000000000000000000000000000008000000000000000000008000000000000000000000000000000000000000001000000000000040000000000000000010000000000000000000000000000000000000000000000000000000000000000000000800000000000000000000000000000000000000080000002140000000000000000000000002000008000000000000000000000000000000000000000000000008000000000000004000000000000000000000000008000000000000000000011000",
      "type": "0x2",
      "transactionHash": "0xde83e55d8a1cb8c526331cff7110c0ff547f71308567eff0106a49f71c466bde",
      "transactionIndex": "0x2",
      "blockHash": "0x31bf17617660dc061c13890565f30db0cb8a054ae3a7fca9f22b63437ac70e41",
      "blockNumber": "0xbc171a",
      "gasUsed": "0x42e85",
      "effectiveGasPrice": "0x17fb474600",
      "from": "0x03746707814360933738ec292a22b661b60b7f87",
      "to": "0x8357034bf4a5b477709d90f3409c511f8aa5ec8c",
      "contractAddress": null
    }
  ],
  "libraries": [],
  "pending": [],
  "returns": {},
  "timestamp": 1770900707340,
  "chain": 10143,
  "commit": "8470359"
}